:020000040800F2
:10000000E09B0024B1020008292D0008952C00086F
:10001000252D0008D70D00084B3F00080000000008
:10002000000000000000000000000000452E000855
:100030002D0E0008000000002B2D0008F12E0008F6
:10004000CB020008CB020008CB020008CB0200085C
:10005000CB020008CB020008CB020008CB0200084C
:10006000CB020008CB020008CB020008CB0200083C
:10007000CB020008CB020008CB020008CB0200082C
:10008000CB020008CB020008CB020008CB0200081C
:10009000CB020008CB020008CB020008CB0200080C
:1000A000CB020008CB020008CB020008CB020008FC
:1000B00065300008CB020008CB020008CB02000824
:1000C000CB020008CB020008CB020008CB020008DC
:1000D000CB020008F53C0008CB020008053D0008F3
:1000E000CB020008CB02000800000000CB02000891
:1000F000CB020008CB020008CB020008CB020008AC
:10010000CB020008CB020008CB020008CB0200089B
:100110006531000875310008CB020008CB020008E9
:10012000CB020008CB020008CB020008CB0200087B
:10013000CB020008CB020008CB020008CB0200086B
:1001400000000000000000000000000000000000AF
:10015000CB020008CB020008CB020008CB0200084B
:10016000CB020008CB020008CB020008CB0200083B
:10017000CB020008CB020008CB020008CB0200082B
:10018000CB020008CB020008CB020008CB0200081B
:10019000CB020008CB020008CB020008CB0200080B
:1001A000CB020008CB020008CB020008CB020008FB
:1001B000CB020008CB020008CB020008CB020008EB
:1001C000CB020008CB020008CB020008CB020008DB
:1001D000CB020008CB020008CB020008CB020008CB
:1001E000CB020008CB020008CB020008CB020008BB
:1001F000CB020008CB020008CB020008CB020008AB
:10020000CB020008CB020008CB020008CB0200089A
:10021000CB020008CB020008CB020008CB0200088A
:10022000CB020008CB020008CB020008000000004F
:10023000CB020008CB02000800000000CB0200083F
:10024000CB020008CB020008CB020008CB0200085A
:10025000CB020008CB020008CB020008CB0200084A
:10026000CB020008CB020008CB020008CB0200083A
:10027000CB020008CB020008CB02000800000000FF
:10028000CB02000800000000CB02000800000000C4
:1002900000000000CB020008DFF810D000F0D0FA18
:1002A000004800478D610008AFF30080E09B002408
:1002B0000648804706480047FEE7FEE7FEE7FEE700
:1002C000FEE7FEE7FEE7FEE7FEE7FEE7D12F0008C8
:1002D000990200082DE9F05F0546002092469B46F2
:1002E00088460646814640241BE02846414647464C
:1002F000224600F08EF853465A46C01A914110D358
:1003000011461846224600F075F82D1A67EB0108D1
:100310004F4622460120002100F06CF817EB00093F
:100320004E41201EA4F10104DFDC484631462A4636
:100330004346BDE8F09F40EA01039B0703D009E074
:1003400008C9121F08C0042AFAD203E011F8013BC1
:1003500000F8013B521EF9D27047D2B201E000F81A
:10036000012B491EFBD270470022F6E710B5134659
:100370000A4604461946FFF7F0FF204610BD421E0C
:1003800012F8013F002BFBD111F8013B02F8013BB1
:10039000002BF9D1704730B505462A460B4612F8B6
:1003A000010B13F8014B08B1A042F8D01CB1002892
:1003B00002D06D1CF1E7284630BD421C10F8011B2D
:1003C0000029FBD1801A704730B50B46014600204A
:1003D0002022012409E021FA02F59D4205D303FA07
:1003E00002F5491B04FA02F52844151EA2F1010288
:1003F000F1DC30BD202A04DB203A00FA02F10020B3
:1004000070479140C2F1200320FA03F31943904052
:100410007047202A04DB203A21FA02F000217047BD
:1004200021FA02F3D040C2F120029140084319465C
:10043000704700000FB4002300B589B00CA90091EB
:100440000B996FF00042CB601E4B06931E4B079337
:100450000423CDE901321D4A089202466B46002072
:1004600000F0ACFA09B05DF814FB70B586B0064632
:100470004FF0FF300091CDE90101002015460C46F8
:1004800004903246694604A8FFF7D4FF0246049858
:10049000211825B108B1084600E0204628600498DC
:1004A00000280DD0002A02DD0098884208D0081BE1
:1004B0000094CDE901043246694604A8FFF7BAFF6B
:1004C00006B070BDF50B0008130C00088908000881
:1004D0002DE9FE4F804681EA0300C00F0C460090D4
:1004E00021F0004123F00045B8EB0200A94105D2FC
:1004F0004046214690461C460B46024623F00040EB
:10050000104347D0270DC7F30A00C3F30A510290E6
:10051000401A019040286BDAC3F3130040F4801BAB
:100520000098924620B10023D2EB030A63EB0B0B39
:1005300001985946C0F140025046FFF75BFF06465E
:100540000D4650465946019A00F08CF910EB080010
:100550006141002487EA115284EAE7731A4340D0CC
:10056000009A62B3019A012A4FEA075215DC001B78
:1005700061EB02014FF0004202EA0752CDE900426E
:10058000001C41F5801132462B4600F062FB03B09F
:10059000BDE8F08F40462146F9E7001B61EB020100
:1005A000001C41F5801300185B412018A2F50017CC
:1005B00047EB030140EAD570B6196D4111E06D08B3
:1005C0004FEA360645EAC0754FEA0752001B61EB59
:1005D0000201001C41F5801149084FEA3000001962
:1005E000514132462B4603B0BDE8F04F00F022BB2C
:1005F0000098012240000023D0EB020263EBE0737D
:10060000009821464FEAE074B8EB000061EB04016A
:10061000E9E783F000435BE781F0004158E72DE90B
:10062000FE4F81EA030404F0004421F000410094ED
:100630004FF0000B23F0004350EA01045ED052EA71
:1006400003045BD0C3F30A54C1F30A552C44A4F24B
:10065000F3340194A0FB0254C1F3130141F480115F
:10066000C3F3130343F4801301FB024400FB034E66
:10067000840A970A44EA815447EA8357A4FB07682F
:1006800002958D0A05FB07854FEA932C04FB0C5459
:100690002705029D4FEA065847EA1637B5EB0805CD
:1006A0006EEB070C870E920E47EA811742EA83121F
:1006B000A7FB0201B6EB0B0164EB00042B0D43EA30
:1006C0000C335E1844EB1C50DA465146E7FB02013E
:1006D000C5F313044FEA0B3343EA14534FEA0432D1
:1006E000019C43EA0603A4F10C040294009CCDE9AA
:1006F00000B400F0AEFA03B0BDE8F08F0020014670
:10070000F9E72DE9F04D81EA030404F0004B21F0F4
:10071000004514464FF0000A23F0004150EA05025C
:1007200020D054EA01021DD0C5F30A570246C5F392
:100730001303C1F31300C1F30A5640F4801543F4C8
:100740008013A7EB0608101BD64608F2FD3873EBA2
:10075000050002D308F1010801E092185B41B8F1ED
:10076000000F03DA00200146BDE8F08D00204FF4B1
:100770008011064684460EE0171B73EB050705D370
:10078000121B63EB050306434CEA010C49084FEAD0
:10079000300092185B4150EA0107EDD152EA0300A4
:1007A00012D082EA040083EA0501084305D0101B39
:1007B000AB4106D20122002306E000224FF00043A5
:1007C00002E06FF0010253101AEB06004CEB0851E7
:1007D00010EB0A0041EB0B01BDE8F04D00F02ABA26
:1007E000C1F30A52C1F3130140F2FF3341F4801107
:1007F0009A4202DA00200146704740F233439A429F
:10080000A2F2334202DC5242FFF703BEFFF7F2BD11
:1008100030B5041E71F1000404DB4FF00044404287
:1008200064EB0101141E73F1000405DB1C464FF05C
:100830000043524263EB0403994208BF904230BD2B
:10084000064C074D06E0E06840F0010394E807001D
:1008500098471034AC42F6D3FFF722FD3070000801
:1008600050700008202A06DBCB17203A41FA02F02C
:1008700043EAE07306E041FA02F3D040C2F12002FD
:100880009140084319467047C0B24FF4F05100F050
:100890002FBA00002DE9FF4F087883B09946FF2852
:1008A00005D0491C2D2804D00024002008E0002099
:1008B0000BE00124F9E700EB800003EB4000491C4A
:1008C0000B78FF2BF7D104B1404200230293147838
:1008D00019461D462D2C01D02B2C04D1521C2D2C39
:1008E00013D000240294AA461478FF2C0FD00A25B6
:1008F000A3FB057801FB05814FF0000C03FB0C11F5
:10090000521CE3194AEB0101EEE70124EAE78144B6
:1009100053EA010002D019F5C87F06DA03980021D6
:10092000C0E9001107B0BDE8F08F0025AE4E2F469C
:10093000DFF8B882184600F0EFF9CDE90001B9F10F
:10094000000002DAC9F1000400E004460023A74ACF
:100950001AEB030B42EB045A12E0E00707D02A46D9
:10096000334638464146FFF75AFE074688462A4630
:10097000334610461946FFF752FE05460E466410F0
:10098000002CEAD1DDE90001B9F1000F5A465346C7
:1009900006DAFFF7B6FE3A464346FFF7B2FE05E039
:1009A000FFF73DFE3A464346FFF739FE029A0AB189
:1009B00081F00041039AC2E90001B3E72DE9FF4F3E
:1009C0001F468DB0D7E901464FF0FF382E2045462F
:1009D0004FF000090B90B9696D1C0E988847396A71
:1009E000824688470028F6D1BAF1FF3F0AD024F4A6
:1009F000D064002E11DDBAF12B0F08D0BAF12D0F03
:100A00000BD102E0404611B08DE744F48064B9692F
:100A10006D1C0E9888478246761E6946600501D592
:100A20002D2000E02B208DF8000001F1010B0DF1CD
:100A3000200809E0B9696D1C0E98884782460F9816
:100A400044F40074761E0560002E02DDBAF1300F0A
:100A5000F0D00B998A453ED144F0800406E00F990E
:100A6000681CA9F1010944F400740860B9696D1C9F
:100A7000761E0E98884782463028F0D02BE00B99DE
:100A80008A4505D1200603D444F08004761E18E080
:100A9000504604F04DF908B30DF11301761E44F4ED
:100AA00000748B4508D2AAF130000BF8010B200628
:100AB00007D5A9F1010003E0200602D409F10100E5
:100AC0008146A00502D50F99681C0860B9696D1CA4
:100AD0000E9888478246002ED1DC53E0002E51DD6F
:100AE000BAF1650F02D0BAF1450F4BD1A00549D537
:100AF000B9696D1C24F44074761E0E9888478246AE
:100B0000002E0CDD2B2804D0BAF12D0F07D144F4B0
:100B10008074B9696D1C0E9888478246761EE00580
:100B200001D52D2100E02B2108F8011BCDF82C80E8
:100B300021E00DF12901761E44F4007488450CD2A1
:100B4000AAF1300010F0FF0088F8000002D10B99E4
:100B5000884509D908F1010806E0E00501D52448D7
:100B600001E042F20F708146B9696D1C0E9888470A
:100B700082460F980560002E04DD504604F0D8F838
:100B80000028D6D1F9690E988847FF208BF800001D
:100B900088F800000020069007904B466A4608A996
:100BA00006A8FFF777FEA00502D46FF001002AE740
:100BB00014F0240F0AD0E00714D1DDE906123868DA
:100BC000031D3B600068C0E900120BE0DDE906018F
:100BD00000F0AEF80146E00704D13868021D3A6023
:100BE0000068016028460EE7000014400000F03F56
:100BF000F1D8FFFF426842B1016811F8013B23B10F
:100C0000521EC0E90012184670470121C160881EBB
:100C1000704742685AB1C368016843B983688B4220
:100C200005D0491E521CC0E90012002070474FF049
:100C3000FF30704710B5141E73F1000408DA401C31
:100C400041F1000192185B411A4301D120F00100EB
:100C500010BD2DE9F04D92469B4611B1B1FA81F2DB
:100C600002E0B0FA80F220329046FFF7C3FB044660
:100C70000F4640EA0A0041EA0B0153465A46084330
:100C800013D0114653EA010019D0C8F14002504672
:100C9000FFF7BFFB05460E46504659464246FFF752
:100CA000A9FB084305D0012004E020463946BDE8F1
:100CB000F08D0020054346EAE0762C4337430A983E
:100CC0006305E40AA0EB08000022FD0A44EA475449
:100CD0000A3002D500200146E9E7010510196941F3
:100CE000DDE9084500196941BDE8F04DA2E70000C3
:100CF0007F2801D9002208E0064A02EB5002C00713
:100D0000127800D1120902F00F0201209040084031
:100D100070470000D06C00080EB540F233420292DA
:100D20000022CDE900221346FFF793FF03B000BD78
:100D300001F0004330B421F0004150EA010206D036
:100D40000A0DA2F56072C1F31301002A02DC30BC67
:100D500000207047440F44EAC104C100E01830BCD1
:100D600000EBC250AFF300800029A8BF7047401CC1
:100D7000490008BF20F00100704710B4B0FA80FCB1
:100D800000FA0CF050EA010404BF10BC704749B1EE
:100D9000CCF1200421FA04F411FA0CF118BF01215E
:100DA00021430843A3EB0C01CB1D4FEA00614FEA3E
:100DB000102042BF002010BC704700EBC35010440D
:100DC0000029A4BF10BC7047401C490008BF20F098
:100DD000010010BC704700BFFEE7000010B501F035
:100DE000F3FF01F0A3FF0348006840F0040001494D
:100DF000086010BD9CEF00E0014609B90748704744
:100E0000022901D10648FAE7032901D10548F6E78E
:100E1000042901D10448F2E70020F0E72023002450
:100E2000402B002460330024803B002470470000E6
:100E300010B50BA003F0BAF800BF0EA000F01AF92D
:100E4000012004F029FC4FF4FA6200210AA000F00E
:100E500025F90028F1D009A003F0A8F810BD000082
:100E60000D0AC9E8D6C34154D3A6B4F0202D3E20C4
:100E700000000000415400004F4B0000C4A3BFE934
:100E8000D3A6B4F04154B3C9B9A60D0A00000000BE
:100E900010B509A003F08AF800BF0CA000F0EAF832
:100EA0004FF4FA6200210BA000F0F8F80028F4D00B
:100EB00009A003F07BF810BD0D0A57494649C4A3A9
:100EC000BFE9D6D8C6F4202D3E20000041542B5255
:100ED000535400004F4B000057494649C4A3BFE993
:100EE000D6D8C6F4B3C9B9A60D0A000030B58BB088
:100EF00004460D4616A003F059F800BF18A000F0F4
:100F0000B9F84FF4FA62002118A000F0C7F80028E1
:100F1000F4D04FF4FA7004F0BFFB00BF2B4622461A
:100F200013A101A803F052F801A800F0A3F84FF4B0
:100F3000FA7004F0B1FB4FF4FA6200210BA000F04C
:100F4000ADF80028EAD00FA003F030F80BB030BDA8
:100F50000D0AC1ACBDD34150202D3E200000000041
:100F600041542B4357514150000000004F4B0000AB
:100F700041542B43574A41503D222573222C2225B0
:100F8000732200004150C1ACBDD3B3C9B9A60D0A4C
:100F90000000000010B509A003F008F800BF0BA086
:100FA00000F068F84FF4FA6200210AA000F076F829
:100FB0000028F4D008A002F0F9FF10BD0D0AB9D83E
:100FC000B1D5BBD8CFD4202D3E20000041544530B0
:100FD000000000004F4B0000B9D8B1D5BBD8CFD42A
:100FE000B3C9B9A60D0A000010B500224FF4005194
:100FF0000F4800F0BBF9142004F04EFB012251030E
:101000000B4800F0B3F900F01FF84FF47A7200219A
:1010100008A000F043F84FF47A72002107A000F016
:101020003DF841F28832002105A000F037F810BDEC
:10103000000402586373756D000000000A00000090
:10104000726561647900000010B500224FF4805190
:10105000074800F08BF9142004F01EFB0122110355
:10106000034800F083F90A2004F016FB10BD0000CD
:101070000004025870B504462046FFF79EF985B279
:101080002A462146022004F0D8FA022202A1104684
:1010900004F0D3FA70BD00000D0A00002DE9F84FEE
:1010A00006460F4690464FF0000900243046FFF7F1
:1010B00084F98246BAF1FF0F02D90020BDE8F88F0B
:1010C00022E008EBC80000EB0810B9EB800F01D953
:1010D00000251AE06946022004F0A0FA90B1012F21
:1010E00004D19DF80010002004F0BAFA305D9DF89C
:1010F0000010884205D1601C84B2544502D10125FC
:1011000003E0002409F10109DBE700BF2846D5E729
:10111000F8B502460B460021002600240020824D2F
:1011200000BFFCE0012707FA01F61F6807EA060482
:10113000B4427CD15F68022F02D05F68122F1AD1AF
:101140004FEAD10C02F1200757F82C004F074FEA65
:10115000D76C0F2707FA0CF7B8434FEA417C4FEAE8
:10116000DC6C1F6907FA0CF738434FEAD10C02F127
:10117000200747F82C0010684FEA410C032707FAB4
:101180000CF7B8431F7907F003074FEA410C07FA41
:101190000CF7384310605F68012F08D05F68022F9A
:1011A00005D05F68112F02D05F68122F17D19068A9
:1011B0004FEA410C032707FA0CF7B8434FEA410CFA
:1011C000DF6807FA0CF738439060506801278F40BA
:1011D000B8431F79C7F300178F4038435060D06879
:1011E0004FEA410C032707FA0CF7B8434FEA410CCA
:1011F0009F6807FA0CF73843D0605F6807F08057A4
:10120000B7F1805F95D100BF484F3F6847F00207B4
:10121000DFF818C1CCF8007067463F6807F0020796
:10122000009700BF00BF424F4FEA910C00E075E00D
:1012300057F82C008F074FEA177C0F2707FA0CF797
:10124000B8433C4FBA4201D100272DE03A4FBA4291
:1012500001D1012728E0394FBA4201D1022723E00A
:10126000374FBA4201D103271EE0364FBA4201D1AF
:10127000042719E0344FBA4201D1052714E0334F57
:10128000BA4201D106270FE0314FBA4201D10727F8
:101290000AE0304FBA4201D1082705E02E4FBA428A
:1012A00001D1092700E00A274FEA817C4FEA1C7C24
:1012B00007FA0CF738431E4F4FEA910C47F82C0001
:1012C0002868A0435F6807F48037B7F5803F00D1F6
:1012D000204328606868A0435F6807F40037B7F5CB
:1012E000003F00D1204368604FF0B0473868A0430A
:1012F0005F6807F48017B7F5801F00D120434FF0D7
:10130000B04738607868A0435F6807F40017B7F506
:10131000001F00D120434FF0B0477860491C1029CE
:10132000FFF400AFF8BD000080000058F4440258FC
:10133000080400580000025800040258000802582F
:10134000000C0258001002580014025800180258ED
:10135000001C02580020025800240258024613695B
:101360000B400BB1012000E0002070470AB101835F
:1013700000E04183704700000148006870470000AA
:1013800064000024034800680349097808440149BF
:1013900008607047640000246C00002410B503202E
:1013A00000F0E2F80F2000F007F808B1012010BDAE
:1013B00000F08CF80020FAE770B504460E4800787B
:1013C0004FF47A71B1FBF0F00C490968B1FBF0F50C
:1013D000284601F043F908B1012070BD102C07D256
:1013E00000222146501E00F082F80548046001E00A
:1013F0000120F2E70020F0E76C0000244000002408
:10140000680000244178154A11600178F9B1121D75
:1014100041681160017B0907C27A41EA0261827A60
:1014200041EAC241427B41EA8241827B41EA424138
:10143000C27B41EA0241427A41EA0221027A41EA50
:10144000420102781143054A0832116005E000218B
:10145000024A121D1160121D1160704798ED00E0E4
:1014600000BF00BF00BFBFF35F8F00BF00BF00BF62
:101470000548006820F480300349086000200249D4
:10148000703108607047000024ED00E040F0010179
:101490000D4A11600C497039096841F480310A4ADB
:1014A000703A116000BF00BF00BFBFF34F8F00BF95
:1014B00000BF00BF00BF00BF00BFBFF36F8F00BF02
:1014C00000BF00BF7047000094ED00E07047014688
:1014D0000846002809DB00F01F0301229A40430957
:1014E0009B0003F1E023C3F8002100BF70472DE902
:1014F000F05F80460D46164602F094FD07463946D9
:101500002A46334601F00700C0F1070ABAF1040F7A
:1015100002D94FF0040A01E0C0F1070AD14600F1F8
:10152000040ABAF1070F02D24FF0000A01E0A0F15D
:10153000030AD4464FF0010A0AFA09FAAAF1010A8D
:101540000AEA020A0AFA0CFA4FF0010B0BFA0CFB3A
:10155000ABF1010B0BEA030B4AEA0B0421464046B0
:1015600002F068FDBDE8F09F00BF00F00702064BE7
:1015700019684FF6FF031940044B0B4343EA02215D
:10158000014B196000BF70470CED00E00000FA0548
:1015900010B500F0CBFB0949096801F470614FF404
:1015A000807292FAA2F2B2FA82F2D140044A515CFD
:1015B000C840044908600846006810BD1844025835
:1015C000D06A00084000002410B500F067FB07490E
:1015D000096801F07001102292FAA2F2B2FA82F2C6
:1015E000D140034A515CC84010BD0000204402585D
:1015F000D06A000870B501460022012000230024B3
:101600009FED811AB0EE410A9FED7F1AF0EE410A7C
:101610007E4D2D6805F003027C4D2D68C5F3053025
:101620007A4D2D1D2D6805F01003784D14352D6869
:10163000C5F3CC0515FB03F501EE105AB8EE411ABF
:10164000B0EE410A22B1012A4DD0022A7DD169E0D3
:101650006E4D283D2D68C5F340152DB36B4D283DCB
:101660002D68C5F3C1066A4D25FA06F4B4FBF0F502
:1016700001EE105AF8EE411A9FED661A80EE012A2B
:10168000624D10352D68C5F3080501EE105AB8EE0D
:10169000411A32EE011AB7EE002A31EE021A21EE9B
:1016A000811AF0EE410A1DE0594DB5FBF0F501EE4F
:1016B000105AF8EE411A9FED571A80EE012A534D49
:1016C00010352D68C5F3080501EE105AB8EE411A21
:1016D00032EE011AB7EE002A31EE021A21EE811A1B
:1016E000F0EE410A5EE04C4DB5FBF0F501EE105A0C
:1016F000B8EE412A9FED471AC0EE011A434D10354E
:101700002D68C5F3080501EE105AB8EE411A31EE06
:10171000811AF7EE001A31EE211A22EE011AF0EECC
:10172000410A3FE03D4DB5FBF0F501EE105AF8EEF1
:10173000411A9FED381A80EE012A344D10352D687C
:10174000C5F3080501EE105A00E00CE0B8EE411AAE
:1017500032EE011AB7EE002A31EE021A21EE811A9A
:10176000F0EE410A1EE02C4DB5FBF0F501EE105AEB
:10177000B8EE412A9FED271AC0EE011A234D10350D
:101780002D68C5F3080501EE105AB8EE411A31EE86
:10179000811AF7EE001A31EE211A22EE011AF0EE4C
:1017A000410A00BF00BF194D10352D68C5F346250D
:1017B0006D1C01EE105AB8EE411AC0EE811ABCEE53
:1017C000E11A81ED001A114D10352D68C5F306455B
:1017D0006D1C01EE105AB8EE411AC0EE811ABCEE33
:1017E000E11A81ED011A094D10352D68C5F3066522
:1017F0006D1C01EE105AB8EE411AC0EE811ABCEE13
:10180000E11A81ED021A70BD000000002844025860
:101810000090D0030000004600093D0040787D01A3
:1018200070B5014600220120002300249FED811A9B
:10183000B0EE410A9FED7F1AF0EE410A7E4D2D6811
:1018400005F003027C4D2D68C5F305507A4D2D1D22
:101850002D6805F48073784D1C352D68C5F3CC05D3
:1018600015FB03F501EE105AB8EE411AB0EE410A2D
:1018700022B1012A4DD0022A7DD169E06E4D283D6A
:101880002D68C5F340152DB36B4D283D2D68C5F36C
:10189000C1066A4D25FA06F4B4FBF0F501EE105AC4
:1018A000F8EE411A9FED661A80EE012A624D183556
:1018B0002D68C5F3080501EE105AB8EE411A32EE54
:1018C000011AB7EE002A31EE021A21EE811AF0EE6B
:1018D000410A1DE0594DB5FBF0F501EE105AF8EE46
:1018E000411A9FED571A80EE012A534D18352D6885
:1018F000C5F3080501EE105AB8EE411A32EE011A8E
:10190000B7EE002A31EE021A21EE811AF0EE410AFA
:101910005EE04C4DB5FBF0F501EE105AB8EE412AF1
:101920009FED471AC0EE011A434D18352D68C5F3D7
:10193000080501EE105AB8EE411A31EE811AF7EEA1
:10194000001A31EE211A22EE011AF0EE410A3FE0B0
:101950003D4DB5FBF0F501EE105AF8EE411A9FED42
:10196000381A80EE012A344D18352D68C5F3080564
:1019700001EE105A00E00CE0B8EE411A32EE011A06
:10198000B7EE002A31EE021A21EE811AF0EE410A7A
:101990001EE02C4DB5FBF0F501EE105AB8EE412AD1
:1019A0009FED271AC0EE011A234D18352D68C5F397
:1019B000080501EE105AB8EE411A31EE811AF7EE21
:1019C000001A31EE211A22EE011AF0EE410A00BF90
:1019D00000BF194D18352D68C5F346256D1C01EE65
:1019E000105AB8EE411AC0EE811ABCEEE11A81ED30
:1019F000001A114D18352D68C5F306456D1C01EE12
:101A0000105AB8EE411AC0EE811ABCEEE11A81ED0F
:101A1000011A094D18352D68C5F306656D1C01EED8
:101A2000105AB8EE411AC0EE811ABCEEE11A81EDEF
:101A3000021A70BD00000000284402580090D00334
:101A40000000004600093D0040787D0170B5044665
:101A50000D4600268D48006800F00700A8420ED20F
:101A60008A48006820F00700284388490860084633
:101A7000006800F00700A84201D0012070BD207866
:101A800000F00200022807D18148006820F00F0012
:101A9000E16808437E490860207800F001000028D2
:101AA00051D07B48006820F47060A16808437849F1
:101AB00008606068022807D1754818380068C0F3CC
:101AC0004040F8B90120D9E76068032807D1704881
:101AD00018380068C0F34060A0B90120CEE7606804
:101AE000012807D16A4818380068C0F3002048B9B7
:101AF0000120C3E7664818380068C0F3800008B9C1
:101B00000120BBE762480838006820F007006168E0
:101B100008435F4908390860FFF72EFC06466068F5
:101B2000022811D108E0FFF727FC801B41F2883121
:101B3000884201D90320A1E755480838006800F021
:101B400038001028EFD13AE06068032811D108E08E
:101B5000FFF712FC801B41F28831884201D9032033
:101B60008CE74B480838006800F038001828EFD19F
:101B700025E06068012811D108E0FFF7FDFB801B1C
:101B800041F28831884201D9032077E7404808387C
:101B9000006800F038000828EFD110E008E0FFF7F7
:101BA000EBFB801B41F28831884201D9032065E7B5
:101BB00037480838006800F038000028EFD1334873
:101BC000006800F00700A8420ED93048006820F0F5
:101BD000070028432D4908600846006800F0070008
:101BE000A84201D0012049E7207800F00400042831
:101BF00007D12748006820F0700021690843244974
:101C00000860207800F00800082809D12048001D4D
:101C1000006820F07000616908431D49091D0860D3
:101C2000207800F01000102809D11948001D006824
:101C300020F4E060A16908431549091D0860207877
:101C400000F02000202809D111480830006820F059
:101C50007000E16908430E490831086000F066F839
:101C60000B49096801F470614FF4807292FAA2F294
:101C7000B2FA82F2D140074A515CC8400649086076
:101C80000F20FFF799FB0020F8E60000002000522B
:101C900018440258D06A00084000002410B5FFF72D
:101CA00077FC0949096801F00F01012292FAA2F2BA
:101CB000B2FA82F2D140054A515CC840044908603A
:101CC0000846006810BD000018440258D06A000899
:101CD0004400002410B5FFF7E1FF0749096801F04F
:101CE0007001102292FAA2F2B2FA82F2D140034AB3
:101CF000515CC84010BD00001C440258D06A000866
:101D000010B5FFF7CBFF0749096801F4E0614FF414
:101D1000807292FAA2F2B2FA82F2D140024A515C87
:101D2000C84010BD1C440258D06A000870B5012597
:101D300000EE905A0022012100230024DFED861AD4
:101D4000B0EE610ADFED841AB0EE611A0020834D17
:101D50002D6805F0380535B1082D15D0102D15D09A
:101D6000182D7CD114E07D4D103D2D68C5F3401534
:101D700045B17A4D103D2D68C5F3C106784D25FA61
:101D800006F000E07648E5E07648E3E07648E1E0FA
:101D9000724D18352D6805F00302704D18352D6809
:101DA000C5F305116D4D1C352D6805F001036B4D14
:101DB00024352D68C5F3CC0515FB03F501EE905ACB
:101DC000F8EE611AB0EE610A22B1012A4FD0022A60
:101DD0007DD16BE0614D103D2D68C5F340152DB3ED
:101DE0005E4D103D2D68C5F3C1065D4D25FA06F424
:101DF000B4FBF1F501EE905AB8EE612ADFED5B1A03
:101E0000C0EE212A554D20352D68C5F3080501EE99
:101E1000905AF8EE611A72EEA11AF7EE002A71EEEE
:101E2000A21A62EE211AB0EE611A1FE04C4DB5FB0A
:101E3000F1F501EE905AB8EE612ADFED4C1AC0EED2
:101E4000212A464D20352D68C5F3080501EE905A2C
:101E5000F8EE611A72EEA11AF7EE002A00E077E0C0
:101E600071EEA21A62EE211AB0EE611A5EE03D4DEB
:101E7000B5FBF1F501EE905AB8EE612ADFED3B1AA1
:101E8000C0EE212A354D20352D68C5F3080501EE39
:101E9000905AF8EE611A72EEA11AF7EE002A71EE6E
:101EA000A21A62EE211AB0EE611A3FE02E4DB5FB88
:101EB000F1F501EE905AB8EE612ADFED2C1AC0EE72
:101EC000212A264D20352D68C5F3080500E00EE0D7
:101ED00001EE905AF8EE611A72EEA11AF7EE002A9E
:101EE00071EEA21A62EE211AB0EE611A1EE01D4DCB
:101EF000B5FBF1F501EE905AF8EE612ADFED1B1A01
:101F000080EE212A154D20352D68C5F3080501EE18
:101F1000905AF8EE611A72EE211AB7EE002A71EEAD
:101F2000821A62EEA11AB0EE611A00BF00BF0B4D1B
:101F300020352D68C5F346256D1C00EE905AF8EE4D
:101F4000601A81EE212AFCEEC21A11EE900A01E01D
:101F5000044800BF00BF70BD0000000010440258DC
:101F60000090D00300093D0040787D01000000464C
:101F700070B504460025207800F00100002872D0DA
:101F8000F948006800F0380010280CD0F6480068C6
:101F900000F03800182812D1F3481830006800F01B
:101FA000030002280BD1F04810380068C0F340400D
:101FB00000286DD0606800286AD1012070BD00BF84
:101FC0006068B0F5803F08D1E7481038006840F4F9
:101FD0008030E549103908602EE0606868B9E24851
:101FE0001038006820F48030DF4910390860084656
:101FF000006820F4802008601EE06068B0F5A02F23
:102000000DD1D9481038006840F48020D6491039E5
:1020100008600846006840F4803008600CE0D24850
:102020001038006820F48030CF4910390860084625
:10203000006820F48020086000BF6068A0B1FFF74E
:102040009BF9054608E0FFF797F9401B41F28831FC
:10205000884201D90320B1E7C34810380068C0F3B3
:1020600040400028EFD013E0FFF786F9054608E06E
:10207000FFF782F9401B41F28831884201D90320E1
:102080009CE7B94810380068C0F340400028EFD101
:10209000207800F00200022847D1B348006800F021
:1020A000380058B1B048006800F0380018283ED118
:1020B000AD481830006800F00300B8BBAA481038DB
:1020C0000068C0F3800018B1E06808B9012075E726
:1020D000A5481038006820F01900E1680843A249BB
:1020E00010390860FFF748F9054606E0FFF744F9A4
:1020F000401B022801D9032060E79B481038006884
:10210000C0F380000028F1D097480C38006820F414
:102110007C304FF47C3292FAA2F2B2FA82F2216958
:102120009140084390490C3908604AE0FFE7E068B5
:1021300068B38D481038006820F01900E168084342
:10214000894910390860FFF717F9054606E0FFF7DF
:1021500013F9401B022801D903202FE782481038C9
:102160000068C0F380000028F1D07F480C38006878
:1021700020F47C304FF47C3292FAA2F2B2FA82F26E
:1021800021699140084378490C39086019E0764884
:102190001038006820F00100734910390860FFF71B
:1021A000EBF8054606E0FFF7E7F8401B022801D9E7
:1021B000032003E76C4810380068C0F38000002853
:1021C000F1D1207800F01000102877D1664800681F
:1021D00000F0380008280CD06348006800F0380090
:1021E000182823D160481830006800F00300012847
:1021F0001CD15D4810380068C0F3002020B1E069B0
:10220000802801D00120D9E657480C38006820F01A
:10221000F8404FF0F84292FAA2F2B2FA82F2216A42
:102220009140084350490C39086047E0E06958B3D1
:102230004D481038006840F080004B491039086064
:10224000FFF79AF8054606E0FFF796F8401B0228CC
:1022500001D90320B2E6444810380068C0F30020DA
:102260000028F1D040480C38006820F0F8404FF0CA
:10227000F84292FAA2F2B2FA82F2216A914008433D
:1022800039490C39086019E037481038006820F0E7
:102290008000354910390860FFF76EF8054606E002
:1022A000FFF76AF8401B022801D9032086E62E4872
:1022B00010380068C0F300200028F1D1207800F029
:1022C0000800082836D16069D0B12748643000681A
:1022D00040F00100244964310860FFF74DF80546DD
:1022E00006E0FFF749F8401B022801D9032065E604
:1022F0001D4864300068C0F340000028F1D019E0A8
:1023000019486430006820F0010017496431086002
:10231000FFF732F8054606E0FFF72EF8401B0228CB
:1023200001D903204AE6104864300068C0F3400039
:102330000028F1D1207800F02000202834D1A069B5
:10234000D8B109481038006840F480500649103967
:102350000860FFF711F8054608E0FFF70DF8401B8D
:10236000022803D9032029E610440258AF48006828
:10237000C0F340300028F0D016E0AC48006820F4EC
:102380008050AA490860FEF7F7FF054606E0FEF711
:10239000F3FF401B022801D903200FE6A348006881
:1023A000C0F340300028F2D1207800F00400042867
:1023B0007DD19F48006840F480709D490860FEF719
:1023C000DBFF054606E0FEF7D7FF401B642801D976
:1023D0000320F3E59648006800F480700028F2D0EE
:1023E00000BFA068012808D190487030006840F014
:1023F00001008E49703108602DE0A06868B98B48F3
:102400007030006820F0010088497031086008468B
:10241000006820F0040008601DE0A06805280DD1C8
:1024200082487030006840F00400804970310860D4
:102430000846006840F0010008600CE07B487030FE
:10244000006820F001007949703108600846006892
:1024500020F00400086000BFA068A0B1FEF78CFF68
:10246000054608E0FEF788FF401B41F288318842AC
:1024700001D90320A2E56D4870300068C0F3400028
:102480000028EFD013E0FEF777FF054608E0FEF7DF
:1024900073FF401B41F28831884201D903208DE54A
:1024A000624870300068C0F340000028EFD1606AD5
:1024B00000287CD05D481030006800F038001828F3
:1024C00076D0606A022874D15848006820F0807085
:1024D00056490860FEF750FF054606E0FEF74CFF40
:1024E000401B022801D9032068E550480068C0F36A
:1024F00040600028F2D100BFD4E90A1041EA001080
:102500004A492831096840F2F33291430843474968
:1025100028310860208E401EC0F30800616B491E00
:102520004FF47E4202EA41210843218F491ED20125
:1025300002EA014108433C21095D491E120202EAF8
:102540000161084339493031086000BF081D006847
:102550004FF6F87188434FF6F87292FAA2F2B2FA87
:1025600082F2A16C914008433049343108602F4811
:102570002C30006820F00C00216C08432B492C31D2
:1025800008600846006820F00200616C0843274993
:102590002C3108600846006840F480300860084626
:1025A000006840F4003008600846006802E03BE044
:1025B00038E01FE040F4802008600846006840F0E2
:1025C000010008601948006840F0807017490860F1
:1025D000FEF7D2FE054606E0FEF7CEFE401B0228BF
:1025E00001D90320EAE411480068C0F340600028E4
:1025F000F2D019E00D48006820F080700B490860A7
:10260000FEF7BAFE054606E0FEF7B6FE401B0228BE
:1026100001D90320D2E405480068C0F340600028D7
:10262000F2D101E00120C9E40020C7E400440258CF
:1026300000480258042808D14FF0E021096941F010
:1026400004014FF0E022116107E04FF0E021096939
:1026500021F004014FF0E0221161704770B504468B
:102660002546681EB0F1807F01D301200FE0681E6F
:102670004FF0E02148610F214FF0FF3001F0DAFC0C
:1026800000204FF0E021886107200861002070BD24
:102690007047704710B504460CB9012010BD94F87E
:1026A0003D0028B9002084F83C00204600F00CF8DA
:1026B000022084F83D00211D206800F0EDFC01207F
:1026C00084F83D000020E9E738B504462068B0F101
:1026D000804F15D100BF0B48006840F00100094948
:1026E00008600846006800F00100009000BF00BFCD
:1026F000032201211C20FEF7FAFE1C20FEF7E7FE54
:1027000038BD0000E844025801460868C06840F03F
:1027100001000A68D0600868008840F001000A687B
:1027200010800020704701460868C06820F0010052
:102730000A68D06000BF0868006A41F211121040B8
:1027400050B90868006A9210104028B908680088DB
:1027500020F001000A68108000BF00207047704719
:1027600010B5044620680069C0F34000D8B1206865
:10277000C068C0F34000B0B16FF00200216808618A
:10278000012020772068806900F0030018B12046FE
:10279000FFF7E5FF05E0204600F0BEF8204600F018
:1027A000BCF80020207720680069C0F38000D8B111
:1027B0002068C068C0F38000B0B16FF004002168E9
:1027C0000861022020772068806900F4407018B109
:1027D0002046FFF7C4FF05E0204600F09DF82046A4
:1027E00000F09BF80020207720680069C0F3C0004B
:1027F000D8B12068C068C0F3C000B0B16FF0080065
:1028000021680861042020772068C06900F0030077
:1028100018B12046FFF7A3FF05E0204600F07CF842
:10282000204600F07AF80020207720680069C0F385
:102830000010D8B12068C068C0F30010B0B16FF0CC
:10284000100021680861082020772068C06900F422
:10285000407018B12046FFF782FF05E0204600F0E7
:102860005BF8204600F059F80020207720680069C6
:1028700000F0010058B12068C06800F0010030B1DC
:102880006FF0010021680861204600F047F82068D9
:102890000069C0F3C01058B12068C068C0F3C01010
:1028A00030B16FF08000216808612046FFF7F0FE2C
:1028B00020680069C0F3002058B12068C068C0F3E8
:1028C000C01030B16FF08000216808612046FFF72A
:1028D000DFFE20680069C0F3801058B12068C0682E
:1028E000C0F3801030B16FF04000216808612046CD
:1028F00000F022F820680069C0F3401058B1206849
:10290000C068C0F3401030B16FF02000216808614A
:102910002046FFF7BEFE10BD70477047044988424D
:1029200004D104490968491C024A1160704700003B
:10293000A097002460000024704710B504460CB92D
:10294000012010BDA06900B100E000BF94F879003B
:1029500028B9002084F87800204600F02BF82420C5
:1029600084F879002068006820F001002168086080
:10297000204600F0B7FC012800D1E2E7606B10B1FF
:10298000204600F0FFFB2068406820F4904021685A
:1029900048602068806820F02A00216888602068EC
:1029A000006840F0010021680860204600F05FFCEC
:1029B000C7E7000010B586B00446AD4920688842DC
:1029C0004CD100BFAB48006840F00100A949086045
:1029D0000846006800F00100009000BF00BF00BF83
:1029E000A4481030006840F01000A249103108607F
:1029F0000846006800F01000009000BF00BF4FF4D0
:102A000000700190022002900120039002200490A7
:102A10000720059001A99848FEF77AFB4FF48060E3
:102A2000019001A99448FEF773FB2520FEF74FFDA6
:102A3000002203212520FEF75AFD8D48006A40F050
:102A400040008B4908620846008B40F0080008836C
:102A50000846006840F02000086007E187492068C8
:102A6000884252D100BF8348006840F0020081498B
:102A700008600846006800F00200009000BF00BF38
:102A800000BF7C480830006840F480207949083154
:102A900008600846006800F48020009000BF00BF76
:102AA0004FF48060019002200290012003900220E8
:102AB00004900720059001A97148FEF729FB4FF407
:102AC0000060019001A96E48FEF722FB2720FEF767
:102AD000FEFC012203212720FEF709FD6748203074
:102AE000006840F0400065492031086063481830B4
:102AF000008840F008006149183108805F4800688C
:102B000040F020005D490860B0E05E4920688842DE
:102B100050D100BF5748006840F001005549086097
:102B20000846006800F00100009000BF00BF00BF31
:102B300050480830006840F400204E4908310860D1
:102B40000846006800F40020009000BF00BF01208C
:102B5000019002200290012003900220049008209E
:102B6000059001A94448FEF7D3FA0220019001A97B
:102B70004148FEF7CDFA3420FEF7A9FC02220321DA
:102B80003420FEF7B4FC3F482030006840F040009D
:102B90003C49203108603B481830008840F008006C
:102BA0003849183108803748006840F0200035491E
:102BB00008605BE034492068884257D100BF2D4847
:102BC000006840F004002B4908600846006800F0E7
:102BD0000400009000BF00BF00BF0846006840F03E
:102BE000080008600846006800F00800009000BF78
:102BF00000BF00BF1F480830006840F480101D4926
:102C0000083108600846006800F48010009000BF9A
:102C100000BF4FF4805001900220029001200390E9
:102C2000022004900820059001A91848FEF770FAC8
:102C30000420019001A91648FEF76AFA3520FEF734
:102C400046FC032211463520FEF751FC0E48006A6F
:102C500040F040000C4908620846008B40F0080034
:102C600008830846006840F02000086006B010BDE8
:102C700000100140E04402580000025800480040A3
:102C800000040258004C0040005000400008025868
:102C9000000C025800BFFEE71FB501200022009281
:102CA000CDE901200323122251060390002000F0F9
:102CB0000CF8012000210091019103231922CDE994
:102CC0000210590700F001F81FBD2DE9FF5F04460F
:102CD0000D4616461F46DDE910ABDDE90E89FEF70D
:102CE000BFFB01208DF80000E0B28DF801000195D6
:102CF000F0B28DF8080000208DF809008DF80A0068
:102D00008DF80B708DF80C808DF80D908DF80EA05D
:102D10008DF80FB06846FEF775FB0420FEF7B6FB92
:102D2000BDE8FF9F00BFFEE77047704710B5002366
:102D3000234C236000BF00BF00BFBFF34F8F00BF15
:102D400000BF00BF231F1868C0F34E3100BFC0F39F
:102D5000C90200BF43F6E07303EA41134FF0404459
:102D600004EA82742343174C236000BF00BF131E84
:102D7000A2F10102EED10B1EA1F10101E7D100BFCA
:102D800000BF00BFBFF34F8F00BF00BF00BF0C4BA1
:102D9000703B1B6843F48033094C703C236000BFD8
:102DA00000BF00BFBFF34F8F00BF00BF00BF00BF19
:102DB00000BF00BFBFF36F8F00BF00BF00BF10BDDB
:102DC00084ED00E060EF00E000BF00BF00BFBFF394
:102DD0004F8F00BF00BF00BF00BF00BF00BFBFF3E9
:102DE0006F8F00BF00BF00BF00201449086000BF04
:102DF00000BF00BFBFF34F8F00BF00BF00BF00BFC9
:102E000000BF00BFBFF36F8F00BF00BF00BF0C4803
:102E1000006840F400300A49086000BF00BF00BFEE
:102E2000BFF34F8F00BF00BF00BF00BF00BF00BF98
:102E3000BFF36F8F00BF00BF00BF704750EF00E0CF
:102E400014ED00E0704700002DE9F04104460D4606
:102E500017461E461E4884420BD11E48046045603A
:102E600000218160C160076181614661FFF765FDF6
:102E70002BE0194884420BD11848046045600021BA
:102E80008160C160076181614661FFF756FD1CE00A
:102E9000134884420BD113480460456000218160CF
:102EA000C160076181614661FFF747FD0DE00E4893
:102EB00084420AD10D480460456000218160C160F0
:102EC000076181614661FFF738FDBDE8F0810000D0
:102ED00000100140A043002400480040204400248A
:102EE000004C0040A0440024005000402045002435
:102EF00010B5FEF747FA10BD10B504460420FFF7E1
:102F000099FB0148046010BD4800002400B59DB045
:102F10004C210AA8FDF728FA202102A8FDF724FA7F
:102F20002A48006820F004002849086000BF0020FB
:102F3000019026480C30006840F4404023490C3191
:102F400008600846006800F44040019000BF00BFE0
:102F500000BF1E480C30006800F40050B0F5005F60
:102F6000F7D101200A9000040B9002201390022157
:102F7000149105211591A021169102211791042188
:102F80001891022119910C211A9100211B911C9179
:102F90000AA8FEF7EDFF08B100BFFEE73F20029050
:102FA0000320039000200490082005904020069004
:102FB00007900001089040200990022102A8FEF726
:102FC00045FD08B100BFFEE71DB000BD0C4802582A
:102FD0002048006840F470001E4908601E480068E0
:102FE00040F001001C49086000201B4910310860B6
:102FF0001948006819490840174908600020164917
:1030000018310860091D0860091D0860124928313F
:103010000860091D0860091D0860091D0860091D78
:103020000860091D0860091D0860091D08600A483C
:10303000006820F4802008490860002006496031BB
:103040000860012006490860C0060249803908600E
:103050007047000088ED00E0004402587FEDF6EA7A
:103060000881005110B50248FFF77AFB10BD00003F
:10307000A097002470B505460C464FF080400549E6
:1030800008600846446000218160C5600161FFF767
:1030900001FB70BDA097002410B500220288294BC7
:1030A00098420ED0B0F1804F0BD0274B984208D0F9
:1030B000264B984205D0264B984202D0254B984289
:1030C00003D122F070024B681A431E4B984217D06E
:1030D000B0F1804F14D01C4B984211D01B4B98423A
:1030E0000ED01B4B98420BD01A4B984208D01A4B6B
:1030F000984205D0194B984202D0194B984203D1FF
:1031000022F44072CB681A4322F080034C6943EAF0
:10311000040202808B68C3620B880385094B9842C6
:103120000BD00C4B984208D00B4B984205D00B4B60
:10313000984202D00A4B984201D10B8A03860123A0
:10314000436110BD00000140000400400008004041
:10315000000C0040000401400040014000440140D8
:103160000048014010B5024800F0F9FD10BD000014
:103170006033002410B5024800F0F1FD10BD0000DE
:10318000803B002490F8341001F0010139B101684E
:10319000496821F40031826B11430268516090F854
:1031A000341001F0020139B10168496821F480311D
:1031B000C26B11430268516090F8341001F00401B1
:1031C00039B10168496821F48021026C1143026819
:1031D000516090F8341001F0080139B10168496874
:1031E00021F40041426C11430268516090F83410A0
:1031F00001F0100139B10168896821F48051826CB5
:1032000011430268916090F8341001F0200139B147
:103210000168896821F40051C26C11430268916011
:1032200090F8341001F0400199B10168496821F427
:103230008011026D114302685160016DB1F5801F6C
:1032400007D10168496821F4C001426D1143026849
:10325000516090F8341001F0800139B1016849687B
:1032600021F40021826D114302685160704738B526
:10327000044600250020E067FEF77EF8054620683A
:10328000006800F0080008280CD16FF07E402B4643
:1032900000224FF400110090204600F0F5FC08B128
:1032A000032038BD2068006800F0040004280CD119
:1032B0006FF07E402B4600224FF4800100902046A4
:1032C00000F0E2FC08B10320EBE7202084F879004D
:1032D00084F87A0000BF002084F8780000BF00BFA7
:1032E000DFE700002DE9F04F89B0044600254FF0DC
:1032F0008008A946AA4600200890FA49206888421A
:1033000001D1012000E0002000B100E000BFA06A70
:10331000B0F1005F00D100BF2169A0680843616976
:103320000843E16940EA0105A06A05432068006896
:10333000ED4908402843216808602068406820F46F
:103340004050E168084321684860A569E549206864
:10335000884201D1012000E0002008B9206A05431D
:10336000A06AB0F1005F03D1D4E90B010843054323
:1033700020688068DD49084028432168886020680B
:10338000C06A20F00F00616A08432168C86200BF6C
:10339000D7492068884224D1D648006800F0380018
:1033A000182814D005DC48B108280AD0102817D1F5
:1033B0000AE020280ED0282812D10EE04FF0010894
:1033C0000EE04FF004080BE04FF0400808E04FF02B
:1033D000080805E04FF0100802E04FF0200800BF99
:1033E00017E1C549206888421DD1C248006800F035
:1033F0000700062816D2DFE800F00306090C0F12BA
:103400004FF000080EE04FF004080BE04FF04008CA
:1034100008E04FF0080805E04FF0100802E04FF018
:10342000200800BFF5E0B549206888421DD1B148A9
:10343000006800F00700062816D2DFE800F0030657
:10344000090C0F124FF000080EE04FF004080BE0DB
:103450004FF0400808E04FF0080805E04FF0100872
:1034600002E04FF0200800BFD3E0A5492068884261
:103470001DD1A048006800F00700062816D2DFE83A
:1034800000F00306090C0F124FF000080EE04FF099
:1034900004080BE04FF0400808E04FF0080805E092
:1034A0004FF0100802E04FF0200800BFB1E095494E
:1034B000206888421DD18F48006800F00700062868
:1034C00016D2DFE800F00306090C0F124FF00008D7
:1034D0000EE04FF004080BE04FF0400808E04FF01A
:1034E000080805E04FF0100802E04FF0200800BF88
:1034F0008FE085492068884224D17E48006800F02A
:103500003800182814D005DC48B108280AD0102843
:1035100017D10AE020280ED0282812D10EE04FF053
:1035200001080EE04FF004080BE04FF0400808E0FF
:103530004FF0080805E04FF0100802E04FF02008B7
:1035400000BF66E07149206888421DD16948006863
:1035500000F00700062816D2DFE800F00306090C89
:103560000F124FF000080EE04FF004080BE04FF090
:10357000400808E04FF0080805E04FF0100802E0AE
:103580004FF0200800BF44E06149206888421DD107
:103590005848006800F00700062816D2DFE800F05F
:1035A0000306090C0F124FF000080EE04FF004085C
:1035B0000BE04FF0400808E04FF0080805E04FF03E
:1035C000100802E04FF0200800BF22E045492068C3
:1035D00088421ED14748001D006800F007000628F9
:1035E00016D2DFE800F00306090C0F124FF00208B4
:1035F0000EE04FF004080BE04FF0400808E04FF0F9
:10360000080805E04FF0100802E04FF0200800BF66
:1036100000BF00BF33492068884201D1012000E08B
:10362000002000285DD00025B8F1100F33D009DC50
:10363000B8F1020F10D0B8F1040F11D0B8F1080F93
:103640002ED117E0B8F1200F27D0B8F1400F0CD0E1
:10365000B8F1800F24D124E0FDF7B6FF054623E042
:1036600005A8FDF7C7FF069D1EE002A8FEF7D8F8E3
:10367000039D19E01F4854380068C0F3401040B162
:103680001C4854380068C0F3C101224820FA01F5F3
:1036900000E0204D08E0204D06E04FF4004503E037
:1036A00000BF0120089000BF00BF002D0AD0606855
:1036B00000EB4000A84203D860680003A84202D291
:1036C00001200890D4E2B8F1100F7CD026DCB8F1CC
:1036D000020F2DD0B8F1040F52D0B8F1080F73D1FA
:1036E0009EE03FE1000C0058F369FFCFFFF4FF11AB
:1036F000001001405444025800440040004800407B
:10370000004C004000500040001401400078004090
:10371000007C00400090D00300093D00B8F1200F6C
:103720007DD0B8F1400F54D0B8F1800FD7D109E166
:10373000FDF74AFF00270646FB49606A31F810C0D2
:1037400062463B4630463946FCF7C4FD4FF480766E
:1037500000220346A3FB060701FB067103FB0213CD
:1037600061684908064671185A41CDE90012666839
:103770003246002308460199FCF7ACFD0546E4E01B
:1037800005A8FDF737FFDDF818C0E749606A31F892
:1037900010B05A46002360461946FCF79BFD4FF4D3
:1037A000807C0022A0FB0C3B01FB0CB100FB021053
:1037B000616849085E1840EB0201D4F804C0624613
:1037C0000023304601E079E0BBE0FCF783FD0546CD
:1037D000BBE002A8FEF724F8DDF80CC0D249606A0D
:1037E00031F810B05A46002360461946FCF772FDC6
:1037F0004FF4807C0022A0FB0C3B01FB0CB100FBD2
:103800000210616849085E1840EB0201D4F804C058
:10381000624600233046FCF75DFD054695E06EE00C
:10382000C2480068C0F3401038B3C0480068C0F315
:10383000C101BF4820FA01FCBB49606A31F810B0F1
:103840005A46002360461946FCF744FD4FF4807C3D
:103850000022A0FB0C3B01FB0CB100FB02106168D5
:1038600049085E1840EB0201D4F804C06246002308
:103870003046FCF72FFD05461FE0AB49606A31F882
:1038800010C062460023AA481946FCF723FD4FF4F6
:10389000807C0022A0FB0C3B01FB0CB100FB021062
:1038A000616849085E1840EB0201D4F804C0624622
:1038B00000233046FCF70EFD054646E09A49606A53
:1038C00031F810C0624600239A481946FCF702FD01
:1038D0004FF4807C0022A0FB0C3B01FB0CB100FBF1
:1038E0000210616849085E1840EB0201D4F804C078
:1038F000624600233046FCF7EDFC054625E08A4988
:10390000606A31F810C0624600234FF40040194647
:10391000FCF7E0FC4FF4807C0022A0FB0C3B01FB99
:103920000CB100FB0210616849085E1840EB02010F
:10393000D4F804C0624600233046FCF7CBFC0546B1
:1039400003E000BF0120089000BF00BFB5F5407F35
:1039500005D3B5F5801F02D22068C56088E101203B
:10396000089085E1E069B0F5004F7CD1B8F1100F07
:103970007AD00CDCB8F1000F13D0B8F1010F21D0D0
:10398000B8F1040F2FD0B8F1080F6ED151E0B8F1A3
:10399000200F6BD0B8F1400F38D0B8F1800F64D150
:1039A00097E0FEF797F9604A616A32F81110B0FBB0
:1039B000F1F04000616800EB5100B0FBF1F01FFA3C
:1039C00080FA89E0FEF79CF9574A616A32F81110D3
:1039D000B0FBF1F04000616800EB5100B0FBF1F08A
:1039E0001FFA80FA78E005A8FDF704FE06994E4A12
:1039F000606A32F81000B1FBF0F04000616800EB43
:103A00005100B0FBF1F01FFA80FA65E002A8FDF763
:103A100007FF0399444A606A32F81000B1FBF0F0E6
:103A20004000616800EB5100B0FBF1F01FFA80FA32
:103A300052E03E480068C0F34010C0B13B48006807
:103A4000C0F3C1013A48C840374A616A32F81110E0
:103A5000B0FBF1F04000616800EB5100B0FBF1F009
:103A60001FFA80FA12E044E011E031E01FE02E4935
:103A7000606A31F810002E49B1FBF0F04000616837
:103A800000EB5100B0FBF1F01FFA80FA24E0264968
:103A9000606A31F810002749B1FBF0F0400061681E
:103AA00000EB5100B0FBF1F01FFA80FA14E01E4960
:103AB000606A31F810004FF40041B1FBF0F04000B3
:103AC000616800EB5100B0FBF1F01FFA80FA03E0EF
:103AD00000BF0120089000BF00BF4FF6F0700AEA57
:103AE0000009CAF3420049EA00092068C0F80C90B6
:103AF000BEE0B8F1100F7CD00CDCB8F1000F1BD089
:103B0000B8F1010F29D0B8F1040F37D0B8F1080F80
:103B100070D159E0B8F1200F6DD0B8F1400F40D00E
:103B2000B8F1800F66D19FE0E06A000800440258B7
:103B30000090D00300093D00FEF7CCF84E4A616AC0
:103B400032F81110B0FBF1F0616800EB5100B0FBEE
:103B5000F1F080B22168C86089E0FEF7D1F8464AEA
:103B6000616A32F81110B0FBF1F0616800EB5100AE
:103B7000B0FBF1F080B22168C86078E005A8FDF7DD
:103B800039FD06993C4A606A32F81000B1FBF0F04A
:103B9000616800EB5100B0FBF1F080B22168C860B1
:103BA00065E002A8FDF73CFE0399334A606A32F8EB
:103BB0001000B1FBF0F0616800EB5100B0FBF1F0D8
:103BC00080B22168C86052E02C480068C0F3401001
:103BD000C0B12A480068C0F3C1012948C840264A3C
:103BE000616A32F81110B0FBF1F0616800EB51002E
:103BF00002E017E037E025E0B0FBF1F080B2216889
:103C0000C8600EE01C49606A31F810001C49B1FB25
:103C1000F0F0616800EB5100B0FBF1F080B2216878
:103C2000C86024E01449606A31F810001549B1FBFE
:103C3000F0F0616800EB5100B0FBF1F080B2216858
:103C4000C86014E00C49606A31F810004FF400417C
:103C5000B1FBF0F0616800EB5100B0FBF1F080B215
:103C60002168C86003E000BF0120089000BF00BFCA
:103C7000089809B0BDE8F08FE06A000800440258D7
:103C80000090D00300093D002DE9F04104460D46A7
:103C900017469846069E21E0701CF8B12EB1FDF73C
:103CA0006BFBA0EB0800B04218D92068006820F434
:103CB000D070216808602068806820F001002168C9
:103CC0008860202084F8790084F87A0000BF002002
:103CD00084F8780000BF0320BDE8F0812068C06947
:103CE0002840A84201D1012000E00020B842D3D0F2
:103CF0000020F1E710B5024800F031F810BD0000D7
:103D00002023002410B5024800F029F810BD00005F
:103D1000402B002470B504460D46012000F03DFF05
:103D2000668B002000F039FF0EB9002070BD218B9A
:103D3000A068405C2870012000F02FFF208B401C01
:103D400080B22083E189884201DB00202083608BE0
:103D5000401E6083002000F020FF0120E6E770B5E0
:103D60000568E96905682A680568AC6801F02005FE
:103D7000ADB10568AD8CEBB2C68A8568AB55C58A16
:103D80006D1CADB2C582C689B54201DB0025C58276
:103D9000458BC689B54202DA458B6D1C458301F01F
:103DA000800525B302F080050DB3858A65B90568E5
:103DB0002D6825F080050668356005682D6845F09A
:103DC00040050668356012E001250577468A45689A
:103DD000AD5D06683585458A6D1CADB24582868924
:103DE000B54201DB00254582858A6D1E858201F082
:103DF0004005F5B102F04005DDB1858A45B9056899
:103E00002D6825F04005066835600025057710E02F
:103E1000468A4568AD5D06683585458A6D1CADB23C
:103E200045828689B54201DB00254582858A6D1E63
:103E3000858205682D6A45F00105066835620568CA
:103E40002D6A45F002050668356205682D6A45F061
:103E500004050668356205682D6A45F008050668A0
:103E6000356205682D6A45F01005066835620568FB
:103E70002D6A45F040050668356205682D6A45F4EF
:103E800080750668356205682D6A45F40075066818
:103E9000356205682D6A45F40035066835620568A7
:103EA0002D6A45F480150668356205682D6A45F06F
:103EB00020050668356270BDF8B504460F46164603
:103EC000002539E01EE0012000F067FEA08A009086
:103ED000002000F062FEA089BDF80010884200DDDD
:103EE00011E0A089BDF8001088420AD1206800685E
:103EF00000F0800028B92068006840F08000216848
:103F0000086000BFDFE700BF785D228A61688854DF
:103F1000012000F042FE208A401C80B22082A1894C
:103F2000884201DB00202082A08A401CA082002061
:103F300000F033FE681C85B2B542C3DB2068006820
:103F400040F0800021680860F8BD00BFFEE7000077
:103F500000B587B000BF1348006840F00200114967
:103F600008600846006800F00200019000BF00BF32
:103F70004FF44050029001200390049003200590DC
:103F800002A90948FDF7C4F800224FF40051064881
:103F9000FDF7ECF9012211030348FDF7E7F907B03B
:103FA00000BD0000E0440258000402580FB4054B65
:103FB00010B503A9044A029800F0C2FE10BC5DF8D7
:103FC00014FB000081570008700000240FB4084B58
:103FD00010B504A902AA039800F0B2FE044602A993
:103FE000002001F030FA204610BC5DF814FB000000
:103FF0004754000803B401984100009850EAC120DA
:1040000018BF04204A0D18BF40F0010040F2FF72B3
:10401000B2EB515F08BF40F00200012808BF052045
:1040200002B0704702480068C0F3022070470000E9
:104030000CED00E010B5002804DB0A07130E054A5A
:10404000135406E00A07140E034A00F00F031B1F67
:10405000D45410BD00E400E018ED00E000000000C2
:1040600070B565482DED020B2DED048B059D25F0F7
:104070000044A04218DC6148844202DC0AD1049862
:1040800040B19DED040BBDEC048B02B0BDE8704067
:1040900000F04EBD002DCCBF9FED590B9FED5A0B8C
:1040A000BDEC048B02B070BD5948A04215DD5948E3
:1040B000A042D8BF4FF0FF3455DD9DED040B51EC0D
:1040C000100BFFF797FF042808BF00F045FD9DED9A
:1040D000040BBDEC048B02B070BD9DED040B51ECE4
:1040E000100B01F009FBCDE904014B489FED4C0B8F
:1040F000A0421CDD4C48A0420BDD9DED042B0024AA
:104100009FED4B1B12EE010B32EE011B80EE012BDB
:1041100027E09DED041B9DED042B012431EE401B97
:1041200032EE000B81EE002B8DED042B1BE042489C
:10413000A0420FDD9DED042B02249FED411B9DED60
:10414000043B32EE412B03EE010B82EE001B8DEDA2
:10415000041B08E09DED040B9FED3B1B032481EE47
:10416000002B8DED042B9DED040B3948062120EE2C
:10417000009B29EE098BB0EE480B784400F04CFC14
:1041800020EE099B3348B0EE480B0521784400F03F
:1041900043FC20EE080B002C0BDA9DED042B39EECE
:1041A000001B9DED040BBDEC048B02B002EE410B35
:1041B00070BD2948784439EE000B00EBC4009DED3A
:1041C000042B90ED001B254812EE001B9DED040B07
:1041D00031EE400B784400EBC400002D90ED001B45
:1041E00031EE400BB8BFB1EE400BBDEC048B02B01A
:1041F00070BD000000000000000010440000F07FCF
:10420000182D4454FB21F93F182D4454FB21F9BFCC
:104210000000DC3F0000203E0000F33F00000000F3
:10422000000000000000F03F0000E63F000000003A
:10423000000000000000004000800340000000007B
:10424000000000000000F83F000000000000F0BF88
:10425000FA290000C0290000782900003829000050
:1042600070B5614E2DED040B2DED048B82B0DDF8A1
:1042700024C0DDE907235C422CF000411C4341EAE5
:10428000D474069D22F00040B44205D86C422C4301
:1042900040EAD474B4420BD99DED081B9DED060B8A
:1042A00002B0BDEC048B04B0BDE8704000F043BC2C
:1042B000ACF14054A4F17F641C430BD0022404EA07
:1042C000AC7444EAD27405439FED498B9FED4A2BB1
:1042D0000DD016E09DED060B51EC100B01F0B8F877
:1042E00041EC100B02B0BDEC048B04B070BD002C8F
:1042F00014BF012C9DED060BF4D0022C2ED0032C04
:104300002FD00B439FED3E1B9FED3F0B0AD0B142D8
:104310001DD1B04209D121F0804120F080400991A7
:10432000079014E0002ADDDA15E0394B7B44002CBD
:1043300008BF93ED000BD5D0012C04BF93ED000B0B
:10434000B1EE400BCED0022C08D0032C09D0B042E5
:104350000AD1002AC6DAB0EE410BC3E7B0EE480B33
:10436000C0E7B0EE420BBDE7401A00159FED2A9B57
:104370003C28C8BF8DED000B15DCBCF1000FBCBFA5
:1043800010F13C0F8DED009B0DDB9DED061B9DEDAF
:10439000082B81EE020B51EC100B01F0ADF901F08E
:1043A00057F8CDE9000194B1012C0CD09DED001B14
:1043B0009FED1B0B022C31EE400B0CBF38EE400B77
:1043C00030EE480B8EE7019880F0004001909DEDA3
:1043D000000BB4EE490BF1EE10FA04BF022000F01E
:1043E000DFFB9DED000B7DE70000F07F000000008B
:1043F000182D4454FB210940182D4454FB2109C0B9
:10440000182D4454FB21F9BF182D4454FB21F93FCA
:10441000A8280000000000000000000000000000CC
:10442000075C143326A6A13C30B583B0044600F0E7
:104430009FFB9FED090B05468DED000B00222146E9
:104440006846FCF712F8284600F0AAFB9DED000B29
:1044500003B030BD000000000000000000000000BC
:1044600010B529499FED261B2DED020B84B0059850
:1044700020F000408842D8BF9DED040B2DDD23497C
:10448000884209D1049840B94FF0010000F088FB40
:1044900000F056FB06B010BD05DB9DED040B30EEC1
:1044A000000B06B010BD68469DED040B00F0BCF893
:1044B00010F0030004BF9DED021B9DED000B0CD01E
:1044C00001280ED09DED021B9DED000B022810D09F
:1044D000012000F0D9FA06B010BD00F02DFA06B0A8
:1044E00010BD9DED021B9DED000B012000F0CCFAEC
:1044F00001E000F021FA06B0B1EE400B10BD000063
:104500000000000000000000FB21E93F0000F07FF8
:1045100010B529499FED261B2DED020B84B005989F
:1045200020F000408842DCBF00209DED040B2EDD12
:104530002249884209D1049840B94FF0010000F0A7
:104540002FFB00F0FDFA06B010BD05DB9DED040B5E
:1045500030EE000B06B010BD68469DED040B00F078
:1045600063F810F003000DD0012814D09DED021B5C
:104570009DED000B022816D000F0DEF906B0B1EE7A
:10458000400B10BD9DED021B9DED000B012000F0C6
:104590007BFA06B010BD9DED021B9DED000B00F0F7
:1045A000CBF906B010BD012000F06EFAE6E700007E
:1045B0000000000000000000FB21E93F0000F07F48
:1045C00000B52DED028BB1EEC08B83B018EE100A52
:1045D00018EE901A8DED008B002818BF01200843BB
:1045E00020F00040C0F17F6000F1E040C00F14D027
:1045F00010EE101A10EE900A8DED000B002918BF76
:104600000121084320F00040C0F17F6000F1E0404C
:10461000C00F04BF012000F0C3FAB0EE480B03B096
:10462000BDEC028B00BD00002DE9F14F04462DEDDD
:10463000020B2DED048B94B09FED9D0B80ED020BD2
:10464000199E9D4826F0004585420ADC9DED180B19
:10465000002084ED000B14B0BDEC048B03B0BDE86A
:10466000F08F96489FED969B9FED978BA84225DD96
:1046700097489FED991B9FED9A2B9DED180B002EEF
:104680000DDD30EE490B854212BF30EE480B30EEA7
:10469000410B30EE420B84ED000B0120DBE730EEE6
:1046A000090B854212BF30EE080B30EE010B30EEE5
:1046B000020B84ED000B4FF0FF30CCE78A48A84294
:1046C00053DB9DED180B51EC100B01F015F841EC8C
:1046D000100BB0EE401B9FED862B9FED870B290D35
:1046E000DFF81CC201EE020B0120FDEEC00B10EE44
:1046F000903A00EE903AB8EEE02BB0EE410B02EEAD
:10470000490B22EE081BFC44032830EE411B84EDCC
:10471000001B1DD011EE902A00EB4015113DC2F395
:104720000A528A1A954213DA0CEB0012B0EE403BA3
:1047300092ED000B401C20EE021B33EE410B33EEDA
:10474000403B33EE411B92ED023B12EE031BDBE7D5
:10475000002EA8BF1846BFF67EAF94ED000B58425E
:10476000B1EE400B84ED000B75E7C6F3130040F487
:10477000801EC6F30A50A0F2F530471100F01F0565
:10478000C5F12000DDF860B013900020089009907A
:1047900005200DF1080C5B49002D07EB0002794460
:1047A00008BF51F8221009D051F8223001EB8201E4
:1047B000AB404A68139922FA01F11943A1FB0E2676
:1047C000A1FB0B131A449A4234BF0123002303EBCD
:1047D00006080CEB8003D3E901A60E448E4234BFD9
:1047E0000121002192448A4411B1924502D903E08B
:1047F000924501D2012100E00021C3E901A6414414
:104800004CF82010011EA0F10100C4DC04989DEDBD
:10481000050A00F10050810F04989FED3B4B80008A
:1048200001EE100ADDED060A9DED072AB8EEC13B48
:10483000B8EE401BB8EE600BB8EE422B002021EE24
:10484000041B9FED334B20EE040B9FED334B22EE08
:10485000042B30EE024B34EE014B34EE034B8DED66
:10486000004B00909DED004B199834EE433B10F047
:10487000004F33EE411B31EE400B32EE401B9DEDFD
:10488000000B9FED272B20EE020B9FED272B01EE57
:10489000020B9DED001B9FED262B01EE020B1CBFB2
:1048A0004942B1EE400B84ED000B0846D3E6000010
:1048B0000000000000000000FB21E93F7CD902401D
:1048C00000004054FB21F93F3163621A61B4D03DCE
:1048D000FB21F93F000000000000601A61B4D03DE8
:1048E0007370032E8A19A33BFB213941000000009D
:1048F00083C8C96D305FE43F000000000000E03F66
:10490000D62400006E240000000000000000103ECD
:10491000000000000000103C000000000000103A01
:104920003326A611460B113C182D4454FB21F93DAA
:1049300000000054FB21F93D10B52DED040B2DEDC9
:10494000068B82B0B0EE41AB09989FED299B20F019
:104950000044B4F1795F0FDA9DED080BBDEEC00B9A
:1049600010EE100A002801BFB0EE490B02B0BDECFA
:10497000068B04B008BF10BD9DED080B1E48062134
:1049800020EE008BB0EE480B784400F045F820EEA6
:10499000080B9DED081B1C48844228EE000B01EE1D
:1049A0004A0B9FED171B28EE011BBCBF31EE400BDD
:1049B00039EE400B16DB1548A042BCBF9FED142B0F
:1049C0008DED002B06DBA4F5001001900020009077
:1049D0009DED002B31EE421B39EE422B31EE400BA8
:1049E00032EE400B02B0BDEC068B04B010BD0000EF
:1049F000000000000000F03F1C220000000000004A
:104A0000000000000000E03F3333D33F0000E93FE7
:104A1000000000000000D23F491E00EBC102B0EED2
:104A2000401B92ED000B31F006020DD0491E00EB49
:104A3000C102B0EE403B92ED002B31F00602B0EE29
:104A4000420B03EE010BF1D1022914D004290AD044
:104A5000062918BF704790ED0A2B00EE012B90ED50
:104A6000080B02EE010B90ED062B00EE012B90EDF2
:104A7000040B02EE010B90ED022B00EE012B90EDEA
:104A8000000B02EE010B704731B504462DED040B0F
:104A90002DED068BB0EE419B07989DED060B20F0A7
:104AA0000040B0F1795F0DDA51EC100BFFF7A2FA7C
:104AB000042808BF00F050F89DED060BBDEC068BF6
:104AC00005B030BD20EE008B1348052128EE00AB69
:104AD000B0EE480B7844FFF79FFF9FED111B8CB1A0
:104AE0009FED112B29EE022B0AEE402B9DED060BBC
:104AF00018EE029B0AEE419B30EE490BBDEC068B93
:104B000005B030BD08EE001B9DED060B0AEE010B53
:104B1000BDEC068B05B030BDD021000000000000C8
:104B2000495555555555C5BF000000000000E03FF0
:104B300030EE000B704730EE010B704700000000B4
:104B40009FED031B81EE010B704700000000000089
:104B500000000000000000009FED030B20EE000BA2
:104B6000704700000000000000000000000000107E
:104B700001480068704700007400002402E008C883
:104B8000121F08C1002AFAD170477047002001E0C7
:104B900001C1121F002AFBD1704780F310887047B3
:104BA0000149086070470000740000242DE9FF5F90
:104BB00082B00021DDE90430020DDDF840B003438E
:104BC00018D044F61050A2F2FF3242431514119847
:104BD00001281FD0A5EB0B00401C5FEA000A4FF034
:104BE00000064E4FDFF83891B046504615D5CAF151
:104BF000000413E0119801244AA3012801D16FEAAF
:104C00000B010298119AC0E90031C0E9024206B0D6
:104C1000BDE8F09FCBF10000DFE704460021404AE9
:104C2000491842EB0450CDE9001012E0E00707D02C
:104C300032463B4640464946FBF7F1FC80468946F2
:104C400032463B4610461946FBF7E9FC06460F463E
:104C50006410002CEAD1DDE90401DDE90023BAF19A
:104C6000000F06DAFBF7DBFC42464B46FBF7D7FCAE
:104C700005E0FBF746FD42464B46FBF742FD044686
:104C80000E460022284BFBF7C3FD03D84FF0FF3040
:104C9000014607E00022254B20463146FBF718FC71
:104CA000FBF79EFD102409E0002C0ADB0A220023FA
:104CB000FBF710FB039B30321A55641E50EA0102C9
:104CC000F2D1641C039AC4F111031444119A012A0D
:104CD00003D0012208430DD10AE0084304D000208C
:104CE0004FF0110B119072E7A3EB0B056D1E0DE059
:104CF0005B4504DD4FF0000205F1010504E003DA35
:104D00004FF00002A5F10105002AECD0029811999C
:104D1000C0E90231C0E9004579E700000000144015
:104D20000000F03F300000000000F0430000E03FD2
:104D300030380A2801D20120704700207047000057
:104D40002DE9FF4F95B09A46884606460025EEE1CC
:104D5000252877D100242746F94A0121039400E051
:104D6000044316F8013F203B01FA03F01042F7D14B
:104D700030782A2811D06FF02F033078A0F130025C
:104D8000092A16D8039A44F0020402EB820203EBCC
:104D900042021044761C0390EFE758F8042B03926C
:104DA000002A03DA504244F40054039044F0020411
:104DB000761C30782E2816D116F8010F44F0040422
:104DC0002A280DD06FF02F023078A0F13003092B84
:104DD00009D807EB870302EB4303C718761CF3E7F8
:104DE00058F8047B761C30786C280FD006DC4C28F1
:104DF00017D068280DD06A2814D104E0742810D088
:104E00007A280FD10DE044F400140AE044F4801431
:104E100001E044F440147278824202D104F5801417
:104E2000761C761C307866280BD013DC582877D097
:104E300009DC002875D04528F6D04628F4D047284C
:104E40001AD193E118E0632835D0642879D0652819
:104E500012D18BE1702873D008DC6728F1D0692863
:104E60006FD06E280DD06F2806D1ACE073282CD0FF
:104E7000752874D0782853D05246179990476D1CE6
:104E800054E1C4F30250022809D003280DD0D8F809
:104E9000001004280DD00D6008F1040846E1D8F890
:104EA0000010EA17C1E90052F6E7D8F800100D80AB
:104EB000F2E70D70F0E718F8041B8DF800100020E1
:104EC0008DF80100EB46012003E058F804BB4FF0D9
:104ED000FF3061074FF0000102D40DE009F101013C
:104EE0008946B9420FDA8145F8DB1BF80910002921
:104EF000F4D108E009F1010189468142FADB1BF88F
:104F000009100029F6D103985346A0EB0907214662
:104F10003846179A00F080FA284400EB090507E0AC
:104F200044E008E10DE01BF8010B52461799904749
:104F3000B9F10109F7D2534621463846179AF2E0F3
:104F400039E00A21C4F302524FF0000B0091022A0B
:104F500006D058F8040BC117032A09D00AE023E051
:104F600008F1070020F00702F2E80201904605E090
:104F700000B2C117042A01D140B2C117002906DAD4
:104F80000A460021404261EB02012D2202E0220587
:104F900004D52B228DF80420012203E0E20701D082
:104FA0002022F7E7914657E00A2100E010214FF058
:104FB000000B00910BE010214FF0000B44F00404B3
:104FC0000827009103E008204FF0000B0090C4F385
:104FD0000252022A05D058F8040B0021032A08D0F7
:104FE00008E008F1070020F00702F2E8020190460D
:104FF00003E080B2042A00D1C0B24FF000092207BA
:105000002AD53278702A07D0DDF800C08CF0100C59
:105010005CEA0B0C05D00EE040228DF80420012242
:1050200008E050EA010306D030238DF804308DF8F3
:10503000052002229146009B83F0080353EA0B03EC
:105040000AD150EA010201D1620705D530228DF85C
:1050500004204FF001097F1E3278582A04D039A26B
:105060000C920CAA02920BE03BA2F9E75B46009A75
:10507000FBF730F90C9B9B5C029A521E0292137054
:1050800050EA0102F2D1029804A9081A00F1200B9B
:10509000600702D524F4803400E001275F4502DD7B
:1050A000A7EB0B0000E0002000EB0B010090039841
:1050B0004944401A0390E00306D453462146179A08
:1050C000039800F0A9F90544002706E001A852461C
:1050D000C05D179990476D1C7F1C4F45F6DBE003C0
:1050E0000CD553462146179A039800F095F90544CC
:1050F00004E030205246179990476D1C0099481ED5
:1051000000900029F5DC08E00298029952460078E8
:10511000491C0291179990476D1CBBF10001ABF13E
:10512000010BF1DC5BE100F065F90544761C307899
:1051300000287FF40DAE19B02846BDE8F08F0000BE
:10514000092801003031323334353637383961625D
:105150006364656600000000303132333435363721
:10516000383941424344454600000000600700D4FE
:10517000062708F1070020F00700F0E80223804628
:1051800003F0004C5FEA0C0001D097A009E0200575
:1051900001D596A005E0E00701D095A001E0AFF2AF
:1051A0004C001390307823F0004365280CD006DCC7
:1051B000452809D046281DD047287FD13BE06628E6
:1051C00018D067287AD136E00021112F01DB112099
:1051D00000E0781CCDE9000104A90CA8FFF7E6FC6B
:1051E000DDE90D010C9A4FF0000B07F10109109257
:1051F00000914EE04FF000400097CDE9011004A966
:105200000CA8FFF7D3FCDDE90D020C9B0F994FF0C2
:10521000000B91461093009211B9791C00EB010923
:10522000B7EB090003D4C0F1FF3B07F10109A9EB7B
:105230000700019042E0012F00DA01270021112F21
:1052400001DD112000E03846CDE9000104A90CA8D9
:10525000FFF7ACFCDDE90D010C9A00914FF0000B5B
:10526000B946109221070FD4009A4A4503DA9146B5
:1052700001E0A9F10109B9F1010F05DD109AA9F1C9
:105280000101515C3029F4D0B84202DA10F1040F68
:1052900003DA0121CDE9011010E0002803DC83448A
:1052A000A9EB000102E0411C494500DD8946A0EB65
:1052B0000B00401C01904FF000400290200705D4E5
:1052C0000198484502DB4FF0FF30019000208DF837
:1052D0004B0002980DF14B07B0F1004F25D0022092
:1052E0000C902B200D90029800280CDA404202907E
:1052F0002D200D9007E00A210298FBF765F8303168
:10530000029007F8011D0C99481E0C900029F2DC50
:1053100002980028EFD1791E0D980870307800F0BF
:10532000200040F0450007F8020D11A8C01BC01D69
:1053300002901398007800B1012000EB0901019858
:1053400001EBE071029801440398401A401E03905B
:10535000E00306D453462146179A039800F05CF800
:1053600005441398007818B15246179990476D1C60
:10537000E00323D553462146179A039800F04CF8D2
:1053800005441BE0BBF1000F07DB0098584504DD26
:105390001098179910F80B0001E017993020524629
:1053A000904701980BF1010B401E05F1010501909A
:1053B00004D12E205246179990476D1CB9F1000177
:1053C000A9F10109DEDC05E017F8010B5246179937
:1053D00090476D1C0299481E02900029F4DC534648
:1053E0002146179A03989EE62D0000002B0000002E
:1053F000200000002DE9F041044600251E46174616
:10540000880404D405E039462020B0476D1C641E92
:10541000F9D52846BDE8F0812DE9F0410446002584
:105420001E469046C80301D5302700E02027880497
:1054300004D505E041463846B0476D1C641EF9D5D9
:105440002846BDE8F0810A68531C0B601070704755
:1054500010B541EC100BFEF703FE51EC100B10BD24
:1054600030B52DED088B81B00DE04F4802784FA18B
:105470006846FEF7ABFD69464D48FAF780FF01200C
:105480004C49087000BF4849032000F0C7F80028C5
:10549000EBD14848007800287ED047A14448FAF76D
:1054A0007AFF002876D046A246A1414800F030F9A4
:1054B0000446FEF7B9FFB0EE409B43A243A13C482F
:1054C00000F026F90446FEF7AFFFB0EE408B9FEDEB
:1054D000410BB4EEC08BF1EE10FA55DD9FED3F0BA2
:1054E000B4EEC08BF1EE10FA4ED29FED3A0B88EE7F
:1054F000001BBDEEC10B10EE104A642104FB01F04D
:1055000000EE100AB8EEC00B38EE400B9FED351BD5
:1055100080EE012BB0EE42AB00EE104AB8EEC00BAD
:1055200030EE0A0B314880ED000B90ED000B53EC90
:10553000102B2FA0FEF73AFD9FED260B89EE001BE6
:10554000BDEEC10B10EE105A642105FB01F000EE18
:10555000100AB8EEC00B39EE400B9FED221B80EE17
:10556000012BB0EE42BB00EE105AB8EEC00B30EE8D
:105570000B0B244880ED000B90ED000B53EC102B2F
:1055800021A0FEF713FD00BF4FF400610848FAF7B1
:10559000EBFE00BF002000E001E00649087001B00A
:1055A000BDEC088B30BD000007000024256300001F
:1055B000206600240100002424474E524D43000081
:1055C0002C4500004E2C00002C4E2C003030302C8E
:1055D000412C0000000000000000594000000000C5
:1055E0000094D1400000000000004E40280000243C
:1055F0006F7665726E203D3D3D3D3D3D2025660D3B
:105600000A000000200000246F76657265203D3D91
:105610003D3D3D3D2025660D0A00000070B5054664
:105620000E462846FBF7E8FB04460CB9002070BD87
:1056300031462046FEF76EFBF9E72DE9F0410546BD
:105640000E4617462846FBF7D7FB04460CB9BDE8C3
:10565000F0813A4631462046FEF72EFC00BFF6E7C1
:1056600013B50446012201A92046FFF7E6FF1CBD41
:10567000B0EE401B9FED040B21EE002B9FED043B91
:1056800082EE030B70470000182D4454FB210940A3
:10569000000000000080664030B50446002504E0AC
:1056A0004FF47A7000F004F86D1CA542F8D330BDB9
:1056B00070B5034600224FF0E02675690D4E36683E
:1056C00003FB06F44FF0E026B16910E04FF0E0264E
:1056D000B06988420BD0884202D20E1A324402E0EE
:1056E0002E1A0E4432440146A24200D300E0EDE7F8
:1056F00000BF70BD4800002482B0CDE9000121F058
:10570000004001909DED000B02B051EC100B704772
:105710002DE9F04705460E4617464FF0000AD046E1
:105720000024A1464FF480711448FAF71DFEAA46E2
:1057300031465046FAF72FFE8046B8F1000F1AD0D6
:1057400031464046FAF727FE044639464046FAF706
:1057500022FE81463046FAF730FE044444B1B9F1E6
:10576000000F05D0A9EB040221460448FAF7E3FD37
:105770000248BDE8F0870020FBE700002076002407
:10578000044B188500BF034AD26902F04002002A88
:10579000F9D070470010014000B587B000BF134832
:1057A000006840F00400114908600846006800F0F5
:1057B0000400019000BF00BF01200390152002905B
:1057C0000320059002A90A48FBF7A2FC00200390E1
:1057D0002A20029002A90648FBF79AFC0022022127
:1057E0000348FBF7C3FD07B000BD0000E0440258CA
:1057F0000008025800B52DED108B89B0B0EE409B2B
:10580000B0EE41ABB0EE428BB0EE43BB38EE491B7D
:10581000B0EE410BFFF72CFFB0EE40CB3BEE4A1B46
:10582000B0EE410BFFF724FFB0EE40DBB0EE000B13
:105830008CEE001BB0EE41EBB0EE4E0BFEF768FEB7
:10584000B0EE40FBB0EE000B8CEE001BB0EE41EB77
:10585000B0EE4E0BFEF75CFE2FEE00EBB0EE490B08
:10586000FFF706FF8DED000B9DED000BFEF7F8FD39
:10587000B0EE40FBB0EE480BFFF7FAFE8DED000BEB
:105880009DED000BFEF7ECFD2FEE00FBB0EE000BE4
:105890008DEE001B8DED001B9DED000BFEF738FE1D
:1058A0002FEE00FBB0EE000B8DEE001B8DED001B0C
:1058B0009DED000BFEF72CFE0FEE00EB8DED06EBE1
:1058C0009DED061BB7EE002B32EE411BB0EE410BF7
:1058D000FEF776FEB0EE40EB9DED060BFEF770FE98
:1058E000B0EE40FBB0EE4E1BFEF7BAFCB0EE001B74
:1058F00020EE010B8DED040B9DED040B9FED051BC0
:1059000020EE010B8DED020B9DED020B09B0BDECFD
:10591000108B00BD00000000AE4D584170B504462C
:105920009FED510A514880ED000A002591E0012CBD
:1059300004D0022C46D0032C66D121E0012211466E
:105940004B48FBF713FD0B20FFF7B2FE00220121AD
:105950004748FBF70BFD00BF02214548FBF7FEFC63
:105960000028F9D04348FCF7CFFE00BF0221404891
:10597000FBF7F4FC0128F9D03E48FCF7D4FE43E0E5
:10598000012204213A48FBF7F1FC0B20FFF790FEBF
:10599000002204213648FBF7E9FC00BF0821344807
:1059A000FBF7DCFC0028F9D03248FCF7ADFE00BF65
:1059B00008212F48FBF7D2FC0128F9D02D48FCF72D
:1059C000B2FE21E0012210212948FBF7CFFC0B2079
:1059D000FFF76EFE002210212548FBF7C7FC00BF31
:1059E00020212348FBF7BAFC0028F9D02148FCF716
:1059F0008BFE00BF20211E48FBF7B0FC0128F9D028
:105A00001C48FCF790FE00BF00BF1A480068466AB9
:105A10001948006840F27121484306EB001000EE7F
:105A2000100AB8EEC01B9FED152B81EE020B0F483C
:105A300090ED001AB7EEC11A30EE010BB7EEC00BB5
:105A400080ED000A00200B49096848620A49086095
:105A50006D1C0A2DFFF66BAF0448D0ED000AB2EEC4
:105A6000041A80EE810A70BD000000005C00002472
:105A700000080258A09700246000002400000000E5
:105A800000004D4010B50120FFF748FFF0EE000A7E
:105A9000B4EEE00AF1EE10FA08D2082217A10420B1
:105AA000FFF7CBFD4FF4FA60FFF7F6FD0320FFF799
:105AB00035FFF0EE000AB4EEE00AF1EE10FA08D27B
:105AC000082210A10420FFF7B8FD4FF4FA60FFF799
:105AD000E3FD0220FFF722FFF0EE000AB4EEE00A39
